:020000040000FA
:100000000010002065310000ED360000ED360000E4
:1000100000000000000000000000000000000000E0
:10002000000000000000000000000000ED360000AD
:100030000000000000000000ED360000ED3600007A
:1000400000000000ED360000ED360000ED36000047
:10005000ED360000ED360000ED360000ED36000014
:10006000ED360000ED360000ED360000050C000016
:10007000ED360000ED360000ED360000ED360000F4
:0C008000ED360000ED360000ED3600000B
:10009000F0B583B00446802904D20325002213461C
:1000A000164636E0C80A802200280CD13F200840BE
:1000B000104389091F230B4040321A4302250023B5
:1000C00001461E4625E0080C00280FD13F230846B4
:1000D000184010438F091F401743090B0F250D408F
:1000E000603213462B430125002610E03F250846C9
:1000F000284010438F092F4017430B0B2B4013430D
:10010000890C07250D40703216462E430025014606
:100110003A4601A8067043708270C170029503F0E0
:10012000F0FA02460B46204611461A4603F0E4F860
:1001300003B0F0BD70B58EB008AB1A4670C970C27E
:1001400070C970C2079001AA104632CB32C032CBC0
:1001500032C007A8024903F0F5FB0EB070BDC046DF
:1001600030640000704780B50A460368416818464D
:1001700004F064F880BD80B50068FFF789FF80BD9A
:1001800070B59AB007AA134670C970C370C970C31E
:10019000006801A90B4670CA70C370CA70C314AB63
:1001A0001A4670C970C270C970C213900DAA104669
:1001B00032CB32C032CB32C013A8024903F0C2FBAB
:1001C0001AB070BD3064000080B5006803F094F888
:1001D00080BDFFFFF0B585B0019127490F78C5B20A
:1001E000E81BC11344184C40204605F0FBF80646B6
:1001F000284605F047F905460397384605F042F9C9
:10020000014628463546264604F030FF294604F0CC
:100210001DFC05F0C7F80446012E2BDB019829468A
:1002200004F014FC154904F001FE04F05DFA01909D
:10023000009100270296022611481249324603F027
:1002400087F904A98020087020467843039A254640
:1002500084184C700A483246029E03F079F9064829
:1002600004702C460198009903F0F0F9781C07B24D
:10027000B742E0DB05B0F0BD200400200024744943
:100280006964000069640000F0B583B00120840255
:100290001A4F385D072828D8194D1A4902262846D2
:1002A000324603F055F9385D01A980220A70487082
:1002B0002846324603F04CF913492846324603F0EB
:1002C00047F9385DC0011149795CC901803181422B
:1002D0000DD3A1420DD83A180B1A02A8402103F001
:1002E00063F9082038550949785403B0F0BD03F08C
:1002F00081FA0846214603F05FFAC0461C00002040
:10030000696400006B6400006D640000010400007B
:10031000F0B583B0099E0193F71800250123B74279
:1003200000D21D46002D57D10124A502AF4257D857
:10033000089D73190027B34200D22746002F53D1DE
:100340008B4255D840192C490A421FD0002E41D06B
:10035000072114460C4055420D4011B2002928DBFC
:10036000264A0199531802935242521A0025E3B2C9
:1003700002994F196C1CAA422CD0455D9D403978DA
:1003800029433970B4422546F2D323E0002E21D010
:100390001A4A019BD1185242D21A0023CC189A4211
:1003A00018D0C55C27782F4327705B1CB342F5D368
:1003B00010E01249019A89180022EBB2521C002960
:1003C00008D00478DC400D7825430D70491C401C92
:1003D000B242F3D303B0F0BD0198394603F00AFAF4
:1003E0003846294603F0E8F92846194603F002FA90
:1003F000184603F0E1F9C046FFFF00001C00002092
:10040000F0B583B0099E0093F71800250123B74289
:1004100000D21D46002D5FD10124A502AF425FD856
:10042000089D73190027B34200D22746002F5BD1E5
:100430008B425DD84019FF2102912F490A4221D0F9
:10044000002E47D0072514462C405142294012B2B5
:10045000002A2CDB2949009A8B18019349428B1AF8
:100460000027E4B20199C9197D1CBB4232D0C75D97
:10047000A740029A57400A783A400A70B5422F4680
:10048000F0D327E0002E25D01C49009BCA18494212
:10049000CB1A00241119A3421CD0055D029F7D4098
:1004A0000F782F400F70641CB442F3D312E0134A4C
:1004B000009BD2180023CCB25B1C002A0AD0017822
:1004C000E140029D694015780D401570521C401C9A
:1004D000B342F1D303B0F0BD0098394603F08AF976
:1004E0003846294603F068F92846194603F082F990
:1004F000184603F061F9C046FFFF00001C00002011
:10050000F0B581B0079E0093F71800250123B7428C
:1005100000D21D46002D4FD10124A502AF424FD875
:10052000069D73190027B34200D22746002F4BD1F6
:100530008B424DD8401928490A421BD0002E39D091
:10054000072114460C4055420D4011B2002922DB10
:10055000224A009BD1185242D21A0025E3B24F1909
:100560006C1CAA4226D0455D9D403D70B442254694
:10057000F5D31FE0002E1DD0184A009BD11852421F
:10058000D21A0023CC189A4214D0C55C25705B1C8B
:10059000B342F7D30EE01149009A89180022EBB25A
:1005A000521C002906D00478DC400C70491C401C09
:1005B000B242F5D301B0F0BD0098394603F01AF904
:1005C0003846294603F0F8F82846194603F012F990
:1005D000184603F0F1F8C046FFFF00001C000020A1
:1005E000F0B591B00EB27F2E00DD38E117B23F2F8B
:1005F00000DD34E1057A6B181BB2012B00DA2EE125
:10060000447A09902046A41824B2012C00DA26E18D
:10061000079314460C43012308939B020693984BBF
:100620001C4220D1802D1ED140281CD1069A099849
:100630004168914200D3114600290AD00068002287
:10064000964B9C18002C04D0855C2570521C8A4265
:10065000F7D301208002914900220A5490480722D2
:100660000A5411B0F0BD874D15403F2F6BDC002DB3
:1006700069D1082867D10025002E059500DB0D46BD
:100680002BB2380F07240440101900B2C010049098
:10069000C001FF22D70107400393F8187F22079B70
:1006A0007F2B00DC1A46531B1AB21418944201D255
:1006B000089D0595494209B2F5170D400599002995
:1006C00000D0CEE0089307900698844200D9CBE092
:1006D000099804684168531900200126934200D20A
:1006E0003046002800D0C3E08B4200D9C4E0601936
:1006F0006349089B0B420FD0684B079959185B421E
:10070000039C1B1BDB1B00240D19A34204D0065DB8
:100710002E70641C9442F7D3012081025F48435C31
:10072000049DEAB293422C4600D21C4644545C49D4
:10073000435C93421A4600D22A46072B00D815463E
:10074000455411B0F0BD082876D10025002E2B4667
:1007500000DB0B4618B20690380F07242040101813
:1007600000B2C0100490E843002F0590074600DB5C
:10077000049FF801069D401906907F2507987F2861
:1007800000DC0546E81A03B2484200B2F6170640FC
:10079000083210B2000F20401018A043141A099814
:1007A00005684168002F25DB6846066009934360B1
:1007B0000795284604912246069BFFF7A1FE08985C
:1007C00081023648435CFAB293423D4600D21D4650
:1007D0004554334D435D93421A4600D23A46072BA7
:1007E0003B46049900D81346435538B20628099B66
:1007F000079D34DC68460660436005982018C21FD8
:10080000069B80332846FFF77BFE08988202234828
:10081000845C791CCBB29C420D4600D2254685549F
:100820001F4A845C9C42234600D20B46072C00D80A
:100830001946815411B0F0BD13480A9008980B90E6
:1008400000240C9411480E900F9410A810490AAA85
:1008500003F078F80F481049224602F015FD11B058
:10086000F0BD214602F0C6FF0146204602F0A4FF7B
:100870002846194602F0BEFF184602F09DFFC0460A
:10088000FFFF000007800000D0C80000486600009D
:100890003066000069640000486600001C0000200B
:1008A00001040000F0B591B00FB27F2F00DD4CE1E4
:1008B00015B23F2D00DD48E1067A73181BB2012BFB
:1008C00000DA42E1447A08900794A41824B2012C7B
:1008D00000DA3AE1059314460C430123069398028B
:1008E0000490FF200990A04B1C4228D1099B7F3B1C
:1008F000DBB29E4223D10798402820D10898416856
:10090000049A914200D3114600290ED000680022BB
:100910009C4B9C18002C08D0855C099E754026785D
:100920002E402670521C8A42F3D301208002954942
:1009300000220A54944807220A5411B0F0BD8B4E8D
:1009400016403F2D089C70DC002E6ED107980828B9
:100950006BD10026002F079600DB0E4633B2280F1E
:1009600007240440101900B2C410E001099AD20112
:10097000024003930292D0187F22059B7F2B00DC5C
:100980001A460594931B1AB214189442079E00D27B
:10099000069E494209B2FD170D40002E00D0D6E058
:1009A0001F46079004998C4200D9D3E00898046848
:1009B0004168531900200126934200D23046002896
:1009C00000D0CAE08B4200D9CBE0601966490F42E3
:1009D00014D06C4B079959185B42039C1B1B029C5B
:1009E0001B1B00240D19A34208D0065D099F7E4001
:1009F0002F7837402F70641C9442F3D3012081027A
:100A00006048435C059DEAB293422C4600D21C46E6
:100A100044545D49435C93421A4600D22A46072B50
:100A200000D81546455411B0F0BD0798082879D173
:100A30000026002F304600DB0846049000B20990E3
:100A4000280F072307931840101800B2C310F04373
:100A5000002D0390054600DB1D46E801099BC018E8
:100A600009907F2605987F2800DC06460498301AF6
:100A700003B2484200B2FE170640083210B2000F1F
:100A80000799084010188843171A12CC002D26DB4E
:100A900068460660089343600791084621463A4637
:100AA000099BFFF7ADFC069881023648435CEAB229
:100AB0009342284600D21846324B585432495B5C68
:100AC00093421A4600D22A46072B284600D81046E1
:100AD0002C4A505428B20628089B079935DC6846F2
:100AE0000660436003983818C21F099B803308468C
:100AF0002146FFF785FC069882022248845C691C27
:100B0000CBB29C420D4600D2254685541E4A845CD9
:100B10009C42234600D20B46072C00D8194681542C
:100B200011B0F0BD12480A9006980B9000240C9466
:100B300010480E900F9410A80F490AAA02F002FF65
:100B40000E480F49224602F09FFB11B0F0BD21462E
:100B500002F050FE204602F02FFE2846194602F011
:100B600049FE184602F028FEFFFF00000780000043
:100B7000D0C80000486600003066000069640000CC
:100B8000486600001C0000200104000010B596B06B
:100B90000FAC0FC418981390199814901A980D90D0
:100BA0001B980E901C980C900DA800900E48019078
:100BB0000CA802900D4803900FA804900C480590D3
:100BC0000C480690032007900024089469460A9177
:100BD0000B9015A8084906AA02F0B4FE0748084978
:100BE000224602F051FBFEE7670100004D42000083
:100BF00025390000E4C80000306600006964000088
:100C000048660000F0B583B05148026801218A436C
:100C10000260504D2868441C2C604F480068844294
:100C200002D25948007845E000242C604B4F3868C8
:100C3000431C3B604A4842684A4E934205D34A4BA4
:100C40001B78002B5BD03C60234693426ED28168B8
:100C5000002934466ED000683F4E06225A43875A18
:100C600080184588808803F03BFC64214143316053
:100C70000026002F304607D07F2F5ED8B8004149AC
:100C80000958204603F02CFC39490860002D08D093
:100C90007F2D57D8A8003B490958204603F020FC77
:100CA0000646344806600120002E00D13046364901
:100CB00008700024002805D06009032103F096FC89
:100CC000002901D02A4800E02A480568002D0DD0EF
:100CD0002046294603F08AFC6808814208D901A809
:100CE0000321017002F07AFB03B0F0BD02A800E01E
:100CF00068460321017002F07DFB03B0F0BD1A4A83
:100D0000117000232B60194A946884605468446011
:100D1000126802603B60104802461360144803608A
:100D20001448036014483446164696E7134819469B
:100D300002F00CFD154802F0F1FC11488022394602
:100D400002F004FD0E488022294602F0FFFCC04656
:100D500000B10040240400202C04002028040020BE
:100D600000000020BE8C00003804002088680000CD
:100D70003004002034040020646600009468000001
:100D80007C6800007066000039040020A068000044
:100D9000F0B5DBB0F94802F0A3FCF948F94981420B
:100DA00004D2F94A08CA08C18142FBD3F748F8497E
:100DB00001E0002204C18142FBD338AC0320029041
:100DC000207055AD284602F0B7FA39A90120087005
:100DD00007466878487068888870000AC870569816
:100DE0000871000A4871204602F0B0FA38AC0220BF
:100DF0003190207055AE304602F09EFA39A90F703E
:100E00007078487070888870000AC87056980871A9
:100E1000000A4871204602F099FA38AC277055AEA6
:100E2000304602F089FA39A90F703D467078487053
:100E300070888870000AC87056980871000A487156
:100E4000204602F083FA38AC0420207055AE3046BC
:100E500002F072FA39A90D70707848707088887045
:100E6000000AC87056980871000A4871204602F0BE
:100E70006DFA38AE11201D90307055AF384602F033
:100E80005BFA39A9002032900870787848708D702C
:100E9000319CCC7056980871000A4871304602F0B7
:100EA00055FA38AE1A201C90307055AF384602F013
:100EB00043FA39A9329808707878487018958D707F
:100EC0002546CD7056980871000A4871304602F0E8
:100ED0003DFA55A802F04CF939A955980870020A54
:100EE0004A70020C8A70000EC870AA483A9057984F
:100EF0000872000A4872A84802F04AF902F0B8FBEA
:100F0000A64807461697329C214602F09FFB39A956
:100F10001E2008704C70CD20C0043A9038AE304688
:100F200002F0BAFA3846214602F090FB3C213046E6
:100F3000264602F003FB9A4F9A4938462A4602F0A9
:100F400007FB994C2046314602F080FB9749384612
:100F50002A4602F0FDFA964938462A4602F0F8FA87
:100F6000944938462A4602F0F3FA1794204631464F
:100F700002F06CFB904938462A4602F0E9FA8F4CA1
:100F8000384621462A4602F0E3FA8D4938462A4679
:100F900002F0DEFA384621462A4602F0D9FA89499B
:100FA00038462A4602F0D4FA874938462A4602F0E3
:100FB000CFFA55A98020279008704E7038462A46EF
:100FC00002F0C6FA81480670FFF75EF9804938469C
:100FD0002A462C4602F0BCFA7E493846224602F0E8
:100FE000B7FA7D4D2846314602F020FA1698314670
:100FF00002F02CFB284602F02FFA0B201F9002F083
:1010000055FB284602F034FA39A820302E9000E033
:10101000329E724939AF38463CC93CC03CC93CC0DD
:101020003846F64330963190001D2F903446641CAC
:10103000052C46DC6A48002102F008FB634806786C
:1010400027987F30C7B2BE422AD0022554485E4955
:101050002A4602F07DFA55A927980870B61C4E70F2
:101060004F482A4602F074FA58480670F0B2B84267
:1010700016D118985B49087000205B4908605B49ED
:101080000B4699685A4A9160596851601968116015
:10109000584908605849086058490860584908602C
:1010A00055A81D99017002F0B1F9FF252842309E24
:1010B00015D038A81C99017002F0A8F92842B6D1C1
:1010C0000DE03198006800210A46FFF789FAFFF722
:1010D000DBF82E982F9981420846A4D198E7189EF4
:1010E0004048067000244048046046488168404AF1
:1010F000916041685160006810603E4804603E485D
:1011000004603E4804603E4804603F2001062046DB
:10111000FFF760F8B102309E3B482F9104708919A7
:10112000401C0029FAD123951898800236490C54A6
:10113000364807221B920A54FFF7A6F8184C22499A
:10114000022520462A4602F003FA55A9279808707E
:1011500007467F374F70204624952A4602F0F8F95B
:1011600003971A4807702A4B1868002852D0811933
:101170001F4AD0681769566994695CE048040020EA
:1011800020040020000000201CD0000040040020AB
:101190002004002000E0D70169640000A08601005F
:1011A0006964000048660000102700004A660000DD
:1011B0004C6600004E66000050660000526600005B
:1011C0005C6600005E660000696400002004002088
:1011D0006066000062660000C0C80000148900005C
:1011E000881300003804002024040020488F0000E9
:1011F00000000020280400202C04002030040020DF
:1012000034040020886800001C0000200104000055
:101210003C04002039A8102102F000FAE74B39986D
:10122000E74AD0603A9F17613B9E56613C9C9461AF
:101230006421196063212E911960C1024140E50CBF
:1012400065404D40080A68402D97D7603296166178
:10125000546190610521319015461E4603F0C6F990
:1012600088002E992990002906D030980F18304612
:10127000319B329E2D9910E039A8102102F0CEF951
:101280003999E96032463A9E2E613B9C6C613C9BE9
:10129000AB6164201060632710460760C8024840B5
:1012A000D90C59404140000A48403296EE602C610A
:1012B00031936B61A8617F21064603F097F92A916B
:1012C000002F07D0309838182C902F46BB4A319BFE
:1012D000329911E039A8102102F0A0F93999E9609A
:1012E0003A9C2C613B9B6B613C9EAE616420B34A8F
:1012F000106063202C902F462C9D1560C80248403A
:10130000F10C71404140000A4840FC6031933B6160
:101310002D967E61B86114212E90164603F066F971
:10132000084604F0AFF801461898C00732904140D3
:101330002891002D07D02C99309809183246319BFE
:101340002D9E2E9D0FE039A8102102F067F9399CDF
:10135000FC603A9B3B6132463B9E7E613C9DBD6199
:101360006420106063212C911160E0026040E90C60
:1013700069404140040A4C403193FB602D963E6128
:101380002E957D61BC6114212046154603F02EF98F
:101390000A31084604F076F88A4903F057FB2C9985
:1013A0002690002907D0309808182C9028463199AB
:1013B0002D9B2E9A10E039A8102102F02FF93999AF
:1013C000F9603A9B3B613B9A7A613C9CBC6164202A
:1013D000286063202C9028462C9E0660C802484056
:1013E000E10C61404140050A4D402D93FB602E9277
:1013F0003846103034C00521284603F0F7F888003D
:101400002290002E09D030982C99081831903E4631
:101410006A482D992E9B2A4612E039A8102102F025
:10142000FDF83999F9603A9B3B613B9C7C613C9AA1
:10143000BA616420614D2860632031903E462846A1
:10144000319D0560C8024840D10C51404140070A17
:101450004F402E93F36034612D927261B7617F210A
:10146000384603F0C3F82591002D06D03098319905
:101470000B1852482E992D9A11E039A8102102F02C
:10148000CDF83999F1603A9C34613B9A72613C9F86
:10149000B7616420494B1D462860632328460360DA
:1014A000C8024840F90C79404140000A48402E9457
:1014B000F460154632617761B061142131901C46A9
:1014C00003F094F8084603F0DDFF014632984140EE
:1014D0002191002C06D0309820183246374E319B8F
:1014E0002E9912E039A8102102F098F83999F1608C
:1014F0003A9D35613B9F77613C9BB36164202F4AE5
:10150000144620606320324626462E903060C80282
:101510004840D90C59404140040A4C40D5601761FD
:101520003193536194611421204603F05FF80A312E
:10153000084603F0A7FF234903F088FA2E9920906C
:10154000002907D0309808182E9030461C4E319B49
:101550003A4613E039A8102102F060F8399D184886
:101560000146CD603A9A0A613B9B4B613C9C8C6181
:101570006420306063202E9030460E462E9F076018
:10158000E8026840E10C61404140000A48402D9269
:10159000F260319333617461B0610521054603F057
:1015A00025F888001990002F0ED030982E99081831
:1015B0002E900248319B2D992A4617E03C040020CA
:1015C000000000200000A04139A8102102F026F8F8
:1015D0003999F1603A9B33613B9C74613C9AB261EA
:1015E0006420F94D286063202E9028462E9D0560CA
:1015F000C8024840D10C51404140070A4F40319346
:10160000F36034612D927261B7617F21384602F038
:10161000EDFF1E91002D06D030982E990B18EA4848
:1016200031992D9D10E039A8102101F0F7FF39996B
:10163000F1603A9C34613B9D75613C9FB7616420C9
:10164000E14A1060632310460360C8024840F90C69
:1016500079404140000A48402E9431460C31B0C1D7
:10166000B061142131901C4602F0C0FF084603F01F
:1016700009FF0146329841401A91002C06D030985B
:1016800020183246D04E319B2E9912E039A81021F5
:1016900001F0C4FF3999F1603A9D35613B9F776154
:1016A0003C9BB3616420C84A1446206063203246E4
:1016B00026462E903060C8024840D90C594041401F
:1016C000040A4C40D5601761319353619461142131
:1016D000204602F08BFF0A31084603F0D3FEBB49D7
:1016E00003F0B4F92E991590002907D03098081806
:1016F0002E903046B64E319B3A4613E039A8102161
:1017000001F08CFF399DB2480146CD603A9A0A61DA
:101710003B9B4B613C9C8C616420306063202E902D
:1017200030460E462E9F0760E8026840E10C61409B
:101730004140050A4D402D92F26031933046103001
:1017400038C00521284602F051FF88001190002F73
:1017500008D030982E9908182E909B48319B2D99CF
:101760002A4611E039A8102101F058FF3999F1609B
:101770003A9B33613B9C74613C9AB2616420924D08
:10178000286063202E9028462E9D0560C8024840A0
:10179000D10C51404140070A4F403193F36034610E
:1017A0002D927261B7617F21384602F01FFF1391BD
:1017B000002D06D030982E990B18834831992D9A18
:1017C00011E039A8102101F029FF3999F1603A9C04
:1017D00034613B9A72613C9FB76164207A4B1D462D
:1017E0002860632328460360C8024840F90C79400A
:1017F0004140000A48402E94F460154632617761FA
:10180000B061142131901C4602F0F0FE084603F04E
:1018100039FE0146329841401291002C06D0309892
:1018200020183246684E319B2E9912E039A81021BB
:1018300001F0F4FE3999F1603A9D35613B9F776183
:101840003C9BB3616420604A1446206063203246AA
:1018500026462E903060C8024840D90C594041407D
:10186000040A4C40D560176131935361946114218F
:10187000204602F0BBFE0A31084603F003FE53493E
:1018800003F0E4F82E991090002907D0309808183A
:101890002E9030464E4E319B3A4613E039A8102127
:1018A00001F0BCFE399D4A480146CD603A9A0A6172
:1018B0003B9B4B613C9C8C616420306063202E908C
:1018C00030460E462E9F0760E8026840E10C6140FA
:1018D0004140000A48402D92F260319333617461B7
:1018E000B0610521054602F081FE88000D90002FB1
:1018F00008D030982E9908182E903348319B2D9996
:101900002A4611E039A8102101F088FE3999F160CA
:101910003A9B33613B9C74613C9AB26164202A4DCE
:10192000286063202E9028462E9D0560C8024840FE
:10193000D10C51404140070A4F403193F36034616C
:101940002D927261B7617F21384602F04FFE0F91F0
:10195000002D06D030982E990B181B4831992D9DDB
:1019600010E039A8102101F059FE3999F1603A9C34
:1019700034613B9D75613C9FB7616420124A1060E1
:10198000632310460360C8024840F90C7940414087
:10199000000A48402E9431460C31B0C1B061142188
:1019A00031901C4602F022FE084603F06BFD014612
:1019B000329841400E91002C0CD0309820183246BD
:1019C000014E319B2E9918E03C0400200000A041FC
:1019D0000000002039A8102101F020FE3999F160A3
:1019E0003A9D35613B9F77613C9BB3616420D94A46
:1019F000144620606320324626462E903060C8028E
:101A00004840D90C59404140040A4C40D560176108
:101A10003193536194611421204602F0E7FD0A31AD
:101A2000084603F02FFDCC4903F010F82E990C90D6
:101A3000002907D0309808182E903046C74E319BA9
:101A40003A4613E039A8102101F0E8FD399DC3485A
:101A50000146CD603A9A0A613B9B4B613C9C8C618C
:101A60006420306063202E9030460E462E9F076023
:101A7000E8026840E10C61404140050A4D402D926A
:101A8000F26031933046103038C00521284602F00C
:101A9000ADFD88000990002F08D030982E990818C5
:101AA0002E90AC48319B2D992A4611E039A810217F
:101AB00001F0B4FD3999F1603A9B33613B9C74614C
:101AC0003C9AB2616420A34D286063202E90284682
:101AD0002E9D0560C8024840D10C51404140070A84
:101AE0004F403193F36034612D927261B7617F2171
:101AF000384602F07BFD0B91002D06D030982E99D0
:101B00000B18944831992D9D10E039A8102101F04F
:101B100085FD3999F1603A9C34613B9D75613C9F2C
:101B2000B76164208B4A1060632310460360C802CB
:101B30004840F90C79404140000A48402E94314613
:101B40000C31B0C1B061142131901C4602F04EFD41
:101B5000084603F097FC0146329841400A91002C58
:101B600005D0309820187B4A319B2E990FE039A878
:101B7000102101F053FD3999F1603A9D35613B9F89
:101B800077613C9BB3616420724A106063202E90A1
:101B90001060C8024840D90C59404140040A4C40EA
:101BA000F560376131937361B4611421204602F00E
:101BB0001DFD0A31084603F065FC674902F046FF47
:101BC0002E990890002908D0309808182D90324698
:101BD000604B2C972746319C13E039A8102101F067
:101BE0001DFD399DF5603A982C9030613B9C7461E5
:101BF0003C9FB76164205749086063202D903246AE
:101C00000B462D9E1E60E8026840F90C7940414069
:101C1000000A48402C99D160319414615761906159
:101C200005212E9015461C4602F0E0FC8800069027
:101C3000002E0AD030982D9908182B902A4623465A
:101C40002D97319C2C992E9F12E039A8102101F07C
:101C5000E5FC3999E96023463A9C2C613B982D902C
:101C600068613C9FAF616420186063202B902A4616
:101C70002B9E1E60C8024840F90C79404140050A7D
:101C80004D403194D4602D9810612E975761956125
:101C90007F212846149117461C4602F0A7FC0791A5
:101CA000002E08D030982B9A10182C903A462746D0
:101CB000319B2E9E12E039A8102101F0AFFC399B18
:101CC000FB603A982D9038613B9E7E613C9DBD61E2
:101CD0006420206063202C903A46274629982049AA
:101CE0000858049022980858059019980858199097
:101CF0001198085822900D9808582990099808586A
:101D00002B900698085831902C9C3C60D802584083
:101D1000E90C69404140070A4F402D98D0602E964B
:101D200016615561976114213846164602F05EFC33
:101D3000084603F0A7FB0146329841403291002C3F
:101D400010D030982C990818324602492D9B2E9CB1
:101D50001BE0C0463C0400200000A0410000002021
:101D6000AC8F000039A8102101F058FC399B314696
:101D7000CB603A9C0C613B9D4D613C9F8F61642020
:101D8000F34E306063200A4631460860D80258405E
:101D9000F90C79404140000A484011460C31B0C16D
:101DA00090610499399139AC2A99217155A94A78E1
:101DB000A2710A7862718978E17128993B9126991C
:101DC0003C9105993D912599217538A94A78A275CC
:101DD0000A7862758978E17521993F91209940913F
:101DE0001999419124211E9A625437A94A782623D1
:101DF000E2540A782523E25489782722A1541A99BB
:101E0000439115994491229945913421139A625432
:101E100036A94A783623E2540A783523E254897881
:101E20003722A154129947911099489129994991C3
:101E300044210F9A625435A94A784623E2540A781D
:101E40004523E25489784722A1540E994B910C996D
:101E50004C912B994D9154210B9A625434A94A7894
:101E60005623E2540A785523E25489785722A15424
:101E70000A994F9108995091319951916421229179
:101E8000079A625433A94A786623E2540A78652394
:101E9000E25489786722A154329953911421059113
:101EA00002F0A4FB0A31084603F0ECFAA94902F05B
:101EB000CDFD5490A84881680791579141680691DB
:101EC000569100681590559055A840253022294616
:101ED000FEF786FB20467030269020466830129030
:101EE00020466430119020465830109020465430DF
:101EF0000F90204648300E90204644300D902046EA
:101F000038300C90204634300B90204628300A9010
:101F10002046243009902046183008900834139445
:101F200000201A9006E011548C481B991154FEF7BA
:101F3000ABF9199D1A98401C1A90322816D101202D
:101F40008749087000208749086087490B469968CF
:101F5000864A916059685160196811608449086027
:101F6000844908608449086084490860199555A827
:101F70001D99017001F04AFA014655A81C9A027099
:101F8000C9B200220029189C00D01446D54300296C
:101F900000D10D4601F03AFA2399084200D02546B7
:101FA0007748054221D0079E5796069F5697159869
:101FB000559055A83022199C21463292FEF772FCAA
:101FC0005796569715985590281902B27321732A7F
:101FD00000DB084601B20024002900DB044655A8B6
:101FE0002146329AFEF7FCFA00E0199C139800682B
:101FF00003F0D8F9024639AE31793998FEF752FC30
:102000000898006803F0CEF90246317D3D98FEF74E
:1020100049FC0A98006803F0C5F90246099801785E
:102020004198FEF73FFC0C98006803F0BBF90246AC
:102030000B9801784598FEF735FC0E98006803F080
:10204000B1F902460D9801784998FEF72BFC1098DB
:10205000006803F0A7F902460F9801784D98FEF743
:1020600021FC1298006803F09DF90246119801784E
:102070005198FEF717FCA01C00B21E901994204640
:102080000A3000B221901A988008283020903746F4
:10209000B968F86802F048FB0546BD608520C105B7
:1020A000284602F00DFB00212891C9432C913946A6
:1020B0000831319139460C3110362D96002832976F
:1020C00000D1CAE0224B18680028284A259108D080
:1020D000309940182990D06811692A9157699569FB
:1020E00012E055A8102101F099FA194B1F4A559892
:1020F000D06056992A911161579F5761589D9561FB
:102100002299196063212991299E1E60C1024140D4
:10211000E80C684048400C0A44402A98D0602B974D
:1021200017612E955561946105212046174602F0EE
:102130005DFA880013490858329D2860002E23D08C
:102140003099299A561802492E9B2A9A2EE0C046A9
:102150003C0400200000A041EC8F000001040000BE
:102160003804002024040020C4B100000000002036
:10217000280400202C040020300400203404002017
:10218000FFFF0000AC8F000055A8102101F046FAB7
:10219000559AFA6056982B903861579B7B61589CF2
:1021A000BC612298E64908602868632635460E60BF
:1021B000D1025140E20C62404A400E0A56402B992F
:1021C000F9602E933946103158C1007A7F21081AE0
:1021D0002399084201D100F07CFFC1B2304602F0E1
:1021E00005FA329F3971D748319908600846002DA9
:1021F00006D030982818D34DD34AD1492B9B13E0F1
:10220000054655A8102101F009FA559BCE4AD36026
:1022100056982E901061579C5461589E9661C849FB
:10222000229808602D6863200860D8025840F10C9D
:1022300071404140000A48402E9913460C3352C366
:102240009061142102F0D2F92098401803F01AF995
:10225000BE4902F0FBFB2599086004202A903E56F7
:102260003C68284603F09EF83F2800DD0BE1002E75
:1022700000DA08E1F5B2237A5919002900D102E108
:10228000627A161836B2012E00DAFCE02E460643BA
:10229000AF4F3E4220D1279EB3421DD1402A1BD1D1
:1022A00060682F99884200D32F980028A94E0BD040
:1022B00021680022B318002B06D08C5C1D782543C2
:1022C0001D70521C8242F5D301208002002131543E
:1022D000A1481B993154D6E0A04B03403F2856DC5F
:1022E000002B54D1082A52D18BB27F227F2B00D8E9
:1022F0000A46511B2E910BB2010F1B9A1140401838
:1023000000B2C610F0012399CF01074078191A18BE
:1023100001219A4200D228912899002901D000F089
:10232000FDFE2B962F998A4201D900F0FAFE6168D2
:102330008B4201D900F0F9FE2168854A2E9C144297
:102340000FD0844A10185242521BD21B0024051988
:10235000A24206D00F5D2E783E432E70641C9C4234
:10236000F5D3012080027B4C225C2B9DE9B28A428E
:102370002B4600D2134623547748225C8A421146EA
:1023800000D22946072A00D80D4625547BE0082AAA
:1023900066D18AB27F2A149A00D80A46511B024697
:1023A000083213B21B0F1B9E3340D318B343D21A0B
:1023B000030F3340C3181BB2DB1000282C9F00DB37
:1023C0001F460EB2F801451918CC2C98874225DD1E
:1023D0006846002142C02B93184621462E922B4678
:1023E000FDF796FF012080025A490A5CF9B28A4241
:1023F0003B4600D21346574A13545748125C8A4250
:10240000114600D23946072A3B462E9A00D80B4681
:1024100050490B5438B206282B9B34DC6846289967
:1024200042C02C981018C21F8035184621462B46F2
:10243000FDF76EFF01208102464D6B5C781CC2B235
:102440009342044600D21C466C5443496B5C934251
:102450001A4600D20246072B00D81046685412E0F4
:102460003F48559001205690289C57943D485990DC
:102470005A9438A855AA3C4901F064FA3B483C49B3
:10248000224600F001FF319804683A49204602F0E4
:102490000DF90028329D0FD13749204602F010F97E
:1024A000002809D128792199884205DC2968097A10
:1024B00008181E99884263DA26982D9E864200D01D
:1024C000E5E51A98052831D305211A9802F008F895
:1024D00004467E260A253296002D01D100F0FCFD2F
:1024E0002046294602F082F80E46A41B0A2D01D28E
:1024F00000F0F5FD0A272846394601F0F1FF0146B4
:10250000304601F0EDFF01462C98329A1018461F14
:10251000092901D900F0E6FD880018490858382239
:102520003146FEF75DF87D43002CD4D101208002B6
:10253000084A115C072900D2F5E41B99F3E4C04670
:102540003C0400200000E0C00000002000004843E0
:10255000FFFF00001C0000200104000007800000B5
:10256000D0C80000486600003066000069640000C2
:10257000486600000000284200005C42BC65000084
:102580000027194807701948076019488168194AD7
:1025900091604168516000681060174807601748F3
:1025A000076017480760174807600126164C304639
:1025B0002146FDF70FFE039D28462146FDF70AFE42
:1025C0002E9630462146FDF705FE28463D4621461B
:1025D000FDF700FE05211A98289101F081FF0446BD
:1025E0002F983099094A13E0380400202404002071
:1025F0002CC9000000000020280400202C0400202A
:102600003004002034040020CDCC4C3E1C000020BF
:1026100015704018521C0028FAD12E9880021849D3
:102620002D900D54174807260E541748057017486B
:10263000056017488168174A9160416851600068D9
:102640001060154805601548056015480560154877
:102650000560154881683B9141683A91006839905E
:1026600039A829462A46FDF7BBFFFDF70DFE0F48A6
:10267000294600F0EBFF601C2690319618E0C0461A
:102680001C00002001040000380400202404002065
:1026900020C4000000000020280400202C0400209A
:1026A00030040020340400202CC8000020A10700C2
:1026B00039A80021017041708170C17001714171B0
:1026C0008171C17101722B914172681C2990092698
:1026D000002D25D00A270926002F01D100F0DCFCAF
:1026E0002846394601F082FF0C462D1B0A2F01D2E5
:1026F00000F0D5FC092E01D900F0D4FC32950A2552
:102700003846294601F0ECFE0146204601F0E8FE7D
:1027100039A98855309836186F43329D002DDBD18A
:10272000741C092E00D33446092C024E024F16D8D1
:1027300004E0C046BC6500001C000020512539A8FB
:10274000015D092901D900F0B2FC88003058282227
:102750002946FDF745FFAD1D641C0A2CEFD32D98CB
:10276000385C052800D328982D9978540548395CA1
:10277000279A8A187B32D2B2022A289A319E04D82C
:1027800002E0C046010400000A463A54FDF77CFD11
:102790002698299981420D468AD32E9908022890BD
:1027A0002B983290309140212291091AC9B226917A
:1027B000289B19437A5C2E9C22437A542D992B9C9A
:1027C0007C54274D7E55259502464032D2B229923F
:1027D0001A43BE5C2E980643BE547C54319A7A55F7
:1027E0001A468032269B9D187E5D06437E557C549A
:1027F000319B25983B544125329BED1AEDB2AD1823
:102800007E5D249F3E43174B5E55164B5C54154B23
:10281000319D1D54299B9B18124DED5C2E9E354316
:10282000104EF554319E0F4B5C540E4B05465E55D1
:1028300032984130C0B280180A4A125C3A43094FBC
:102840003A547C547E55FDF71FFD6420214600F06C
:10285000FDFE309AD0B2511C212806D304E0C046B8
:10286000010400001C00002011462128104698D3C6
:10287000012100222F9C2D922691354613461033BC
:10288000F820194601400A011F262B923243A2422A
:1028900001D300F010FCBC5C2B4001210D469D4093
:1028A0002C43BC540C46A1020022329130927A543F
:1028B000094A3199B954182239462D9BD71A3A46FC
:1028C0002E90024012011346219633432F988342E3
:1028D000319803D3F8E3C04601040000CE5C074002
:1028E0002994BC402643CE54329B309ECE54054B97
:1028F000C85461232B9F1F432F9EB7423E460F466D
:1029000002D3F3E30104000031467E5C2E437E5483
:10291000309D32997D54054978541A432F998A4243
:1029200006462846329D03D3C5E3C0460104000095
:10293000B95C2143B954785508497E542D9B113315
:1029400019462E9A1140090162222B9211432F9AA7
:1029500091420246284603D3B2E3C0460104000078
:102960007C5C259433403446299E35469D40259B0A
:102970001D437D5405467A5507497C5419212D98ED
:10298000081A01462E9B194009012B9B19432F9BC6
:102990009942144602D393E3010400007A5C319B10
:1029A0001840864016437E547C550748319E3E545D
:1029B000FDF76AFC6420214600F048FE269AD0B25A
:1029C000511C052803D301E001040000114605282D
:1029D0002F9C00D24FE7222621202299091AC9B242
:1029E000289B19437A5C10242D9422437A54309901
:1029F00079550D492C46319D7D544030C0B2184365
:102A00003A5C2D9B1A433A54309838557D54309C8B
:102A1000FDF73AFC6420214600F018FEF0B2711C6C
:102A20003A2804D302E0C0460104000031463A28A7
:102A300030460E46329DD0D3059B2F9D2198C00174
:102A40001901014006220A43581C2D90AA421E4635
:102A500000D350E3BB5C319C26402998B040264609
:102A60000343BB54309C329BFC54034ABE547A222D
:102A70001143A94202D323E3010400007A5C02431C
:102A80007A54FC5406483E54FDF7FEFB6420214670
:102A900000F0DCFD2D99C8B22E280B46CED301E004
:102AA000010400003248395C20252943395431485B
:102AB000395C29433954309E329C3E552E482B9028
:102AC00031993954FDF7E0FB64202D90314600F038
:102AD000BDFD2A48395C294339545F20C000395C68
:102AE000294339543E5531982B997854FDF7CCFB46
:102AF0002D98314600F0AAFD5120C000395C2943D1
:102B000039541F48395C294339543E552B9C319820
:102B10003855FDF7B9FB2D98314600F097FD19485F
:102B2000395C294339541848395C2943395432985F
:102B30003E5431983855FDF7A7FB2D9C2046314671
:102B400000F084FD1148395C294339541048395C40
:102B500029433546395432983D54319E2B997E5441
:102B6000FDF792FB2046294600F070FD1F9911E009
:102B700086020000F9020000010400008702000044
:102B8000F702000089020000F60200008A0200003D
:102B9000F50200002B462C3318462E9A10400401F3
:102BA00022460A432F98824200D384E2B95C334024
:102BB0000126304698400143B9542D96B1020022B7
:102BC0002B9132927A54094A3199B9542C223946C0
:102BD0003095571B3A462E9B1A40120113461F9DF3
:102BE0002B432F9DAB42319D02D36DE201040000C7
:102BF000CE5C28962F402D9DBD40289E2E43CE545E
:102C00002B9B329ECE54054B319ECE5473263443BB
:102C10002F9B9C420F4603D372E2C0460104000082
:102C20003B5D03433B552B99329B7B54FE48319CC3
:102C30003C54289632432F98824200D33BE2B85C42
:102C40002843B8547B54F848319A3A54309D28466A
:102C50002D3001462E9C21400901742211432F9BE7
:102C6000994200D32CE27B5C2693319E30402D9B11
:102C70008340269803437B5432982B997854EA4832
:102C80003E542D20401B01462140090111432F9B3A
:102C900099421F9C00D313E226927A5C30402D9B10
:102CA000834013437B54329D2B983D54DE483E5461
:102CB000FDF7EAFA6420294600F0C8FC299DE8B235
:102CC000691C05282D9B00D3294605282991319E92
:102CD000214600D25EE7029800023090580225900B
:102CE00032982D9301460B31CAB21146259C2143DF
:102CF0007B5C279D2B437B542B99329B7B54CA4D85
:102D00007E55289B1B1ADBB21E462643C74CA75D87
:102D1000279C2743C54CA755C44F329C7C54319CFB
:102D20007C55309C2243BE5C249C2643BE54329A80
:102D30007A54319A7A55309E3343FA5C249C22436C
:102D4000FA54329A7A54319C7C55269A121A299256
:102D50000C30C0B2304332463B5C2A9E33433B5476
:102D6000329878547C552998C0B210433A5C32436B
:102D70002646329B3A547B547E551C46FDF784FA16
:102D80006420214600F062FC2D9AD0B2511C262806
:102D900000D31146262810460B46A2D3012100205D
:102DA0002D902F9C2E9B27912D982730014619405E
:102DB0000A0131232A921A43A24200D37BE1BC5C70
:102DC000304001252946814028910C43BC542B9565
:102DD000AA02002032903092B854D5483E5435466D
:102DE0002D990E46283630462E9C20400201322076
:102DF000299002432F988242204600D35BE1BC5CBD
:102E00002E402B9DB5402543BD54329A309C3A55F7
:102E1000C74A319EBE542D915C1A224602401201CF
:102E200013432F9DAB4200D34EE1FD5C344031464D
:102E30002B9EA6403543FD54329B309C3B55BC4BEA
:102E4000F9542D99299D6C1A234603401B012B43ED
:102E50002F9DAB4200D337E1F85C319D2C402B997C
:102E6000A1400143F954329830997854B0483D5408
:102E70004E202A9901432F9B99421C4600D344E1DE
:102E80007B5C289D2B437B543299309BF954A84995
:102E9000319B7B540243A24200D33AE1B85C3043F9
:102EA000B854329E30983E54A148319D3D54FDF7B0
:102EB000EBF96420314600F0C9FB279AD0B2511CCF
:102EC00006282E462E9B00D3114606282D9200D2AE
:102ED00069E79D4800210D46309500F0B7FB9B48FF
:102EE00081683B910E46416831913A9100682F907C
:102EF000399039A80424402207462E972146FDF731
:102F00006FFBFDF7C1F91698294600F09FFB354687
:102F100032953B95319E3A962F9839903F2238460C
:102F20002146FDF75DFBFDF7AFF9169F3846309956
:102F300000F08CFB3B953A9635462F9839903E220F
:102F40002E9E30462146FDF74BFBFDF79DF9384696
:102F5000309F394600F07AFB32983B903A952F9D8E
:102F600039953D2230462146FDF73AFBFDF78CF9B5
:102F7000169839463E4600F069FB329F3B973198E0
:102F80003A9039953C222E9D28462146FDF728FB94
:102F9000FDF77AF91698314600F058FB3B973198C7
:102FA0003A902F9E39963B2228462146FDF718FB82
:102FB000FDF76AF9169F3846309900F047FB3298C2
:102FC0003B9031983A9039963A2228462146FDF7AF
:102FD00007FBFDF759F93846309F394600F036FBBC
:102FE00032983B90319E3A962F9D399539222E98F2
:102FF0002146FDF7F5FAFDF747F91698394600F036
:1030000025FB32983B90304607463A9028460646C4
:10301000399038222E982146FDF7E2FAFDF734F96F
:103020001698309918E0C046010400001C000020EA
:1030300039A8382521462A46FDF7D2FA32983B9026
:103040003A97399621468C3139A82A46FDF7C8FAB5
:10305000FDF71AF90021179800F0F8FA39A81D9920
:10306000017000F0D3F9239D284213D055A81C9974
:10307000017000F0CBF928420CD032983B903A977F
:1030800039962C982018A1B28B34314A9142CFD076
:103090000446CDE75BB0F0BD284800F03FFB264872
:1030A00000F03CFB23480A22314600F04FFB244845
:1030B0000A2200F04BFB234811462F9A00F046FBF2
:1030C00020482F9A00F042FB1E4819462F9A00F024
:1030D0003DFB234800F022FB204800F01FFB1E4868
:1030E00000F01CFB1B480A2200F030FB154831465B
:1030F0002F9A00F02BFB134811462A4600F026FBBE
:10310000104821462F9A00F021FB0E48224600F07D
:103110001DFB0C481146224600F018FB114600F03A
:1031200069FB10462F9900F047FB184600F044FB5E
:10313000010400002466000010660000FC65000029
:10314000F06500008064000040420F00B4C8000039
:1031500075FF0000E4650000E0640000CC6400003E
:10316000CC8F000080B5FDF713FE002080BDFFFF6F
:1031700018210170192141701A2181701B21C17021
:1031800002494160002101817047C046005027007C
:10319000F0B585B0FF2000020A681040040A100E46
:1031A0000490100C0390D2B2202A5BD2486802909F
:1031B00091002E4D4E592E4F3E402E480346093366
:1031C00033434B51202C4DD20194A1006B583B400E
:1031D000064608361E436E5004991F2906D80499E6
:1031E00089006B583B40461C1E436E50039CE1B265
:1031F0001F2904D88B00EE583E400643EE501E4D6A
:10320000686A029868620020C643F01EEB6E0340B5
:10321000EB662868042303432B60184803680127E2
:103220003B43036083683B438360701E144B1F68FD
:1032300007401F603046FF38EB690340EB61A86828
:103240000498202800D33046A8602869E0B22028DE
:1032500000D331462961686901986861E868EA60CD
:1032600005B0F0BD074800F059FAC046000700500D
:10327000F0F8FCFF020001000025004000200040A3
:103280000821004038C90000F0B58D18FF20C44364
:103290001748184B002A10D00A782646FE360768D1
:1032A000374007601E68264016431E6002680126EC
:1032B0003242FBD0491CA942EED12146FE310268C0
:1032C0000A4002601A6822400D2515431D600568FA
:1032D00001221542FBD005680D40056019682140A8
:1032E0000A240C431C6001681142FCD0F0BDC046AA
:1032F0001C2100401C250040F0B58818002A14D07D
:10330000FF22D2430A4B0B4C0D781646FE36276837
:10331000374027601E6816402E431E602568012630
:103320003542FBD0491C8142EED10020F0BDC046A1
:103330001C2500401C210040012101700022427028
:103340008270C170027142717047FFFFF0B581B0A9
:1033500005228C560F79CA788B784D780E78A100AB
:10336000012F03D0022F03D1164C02E0164C00E0CF
:10337000164C641801781F291FD80120002E07461B
:1033800000D13746AD000C262E403E439843400006
:10339000304303231B0412041A4002430720000297
:1033A00023681B020340134388000A4942580A4C11
:1033B00014401C43445001B0F0BD0548202200F0E9
:1033C000C5F9C04648CA00003CCA000030CA000027
:1033D00000CA000000070050F0F8FCFF0078044924
:1033E0000A681F2202400120904008607047C046D2
:1033F00008050050007804490A681F220240012095
:10340000904008607047C0460C05005000781F21AE
:103410000140012002468A40034909681140002901
:1034200000D108467047C04610050050B0B50748A7
:103430000B460340064A1468064D25401D4315609F
:10344000136803408B42FBD1B0BDC046FF0F0000A4
:1034500008B5004000F0FFFF0448016C0122114351
:1034600001640168114301607047C04604B3004025
:1034700006490A68012002430A60054909680142B9
:10348000FBD004490A6802430A6070470800004004
:103490001404004000B00040F0B583B048680190CB
:1034A0000A880720C043811D1E4B1D680D401D600A
:1034B0000292110A1E6801252E42FBD11E682E437E
:1034C0001E60194B1D6805401D60202926D28A0008
:1034D000164D5459164E344003277F023C43545135
:1034E000029AD4B2202C029118D2A200A9583140DD
:1034F0003943A950D968DC60996802999960596A82
:10350000019959621968014005220A431A60001D99
:1035100008490A6802400A6003B0F0BD064800F09E
:10352000FDF8C046FC3F0040003500400007005059
:10353000F0F8FCFF0032004038C900007F20014055
:10354000024A136883430B43136070478835004079
:10355000F0B581B01148046801231C430090046059
:103560008C18002A13D0FF22D2430D4D0E782F68FD
:10357000174037432F600B4E37681F42FBD017466A
:10358000FE37306838403060491CA142EED10098C7
:10359000C1681943C16001B0F0BDC04608300040A9
:1035A0001C3500401C310040F0B583B0184D286830
:1035B0000124204300952860FF20C543154E306844
:1035C00002952840C9B2014331601349086820427E
:1035D000FBD0029FFE37086838400860D018019081
:1035E000002B0FD013783568029805401D433560D5
:1035F0000B682342FCD00B683B400B60521C0198C7
:103600008242EFD10099C8682043C86003B0F0BD82
:10361000083000401C3500401C310040B0B5421855
:1036200000290DD007490C6801231C42FAD0064C32
:1036300024680D689D430D600470401C9042F1D1D8
:10364000B0BDC04600D1004008D500400022D243A2
:10365000401E514102460A4300BF00BF00BF00BFE9
:1036600000BF00BF00BF00BF002AEFD17047FFFFBF
:103670000A490A68012002430A60094A12680242A4
:10368000FBD0CA680243CA6006490A6882430A60DE
:1036900005490A6802430A607047C04608000040B6
:1036A0001404004004D5004000D0004010B541098A
:1036B000020A002A0CD11F2210400122D3078240A7
:1036C00088000649445894439C431443445010BD19
:1036D0000148082200F03AF8C4C9000000E100E007
:1036E000014908607047C04644040020FFE7EFF33B
:1036F0000980EFF3088182698B6900BE7047FEDEA6
:10370000FEE780B501464868052804D20A1804215E
:10371000091A104680BD042100F06CF810B58CB079
:103720001EC800680491059204A906910121079121
:1037300000210891044A0A920B910193029403908C
:1037400006A801A900F020F898CA000080B58CB046
:1037500003460B910A920AA80090094801900BA910
:1037600002910390074804900220059000210691E1
:1037700069460891099004A8194600F005F8C0466A
:103780002543000064CC0000F0B587B030C8026863
:103790000592426806928668C3680F684A6889681D
:1037A0006846066043608760C26001612046294622
:1037B000059A069BFDF7EAF980B58CB00B900A914B
:1037C0000BA80090084801900AA9029103900748AD
:1037D0000490022005900021069169460891099005
:1037E00004A80349FFF7D0FF2543000054CD000093
:1037F00068CA000080B58CB00B900A910BA80090AD
:10380000084801900AA902910390074804900220F9
:1038100005900021069169460891099004A8034982
:10382000FFF7B2FF2543000094CD000074CA0000EA
:10383000F0B595B014921393FF252E46023601245D
:10384000B14258D36E1C8E4206D244190127E45768
:103850004027FF43BC4206DC6C1E002D02D0A9426B
:103860002546EFD1661C002411901296002C01D140
:10387000234800E021480F9000200521002C00D1B2
:10388000084610909A421AD914A801901D48029037
:1038900013A90391049011A805901B4806900FA945
:1038A000079108901B48099004200A9000210B9171
:1038B00001A90D910E9009A81749FFF765FF14A8FB
:1038C00001901048029013A90391049011A805904B
:1038D0000D4806900FA9079108900C480990052003
:1038E0000A9000200B9001A80D9004200E9009A8CA
:1038F0000749FFF749FF0E46B6E7C04698CA0000E1
:1039000093CB000025430000FD43000024CE0000BF
:103910008CCA0000C8CD000080CA000080B500F04D
:1039200001FD80BDF0B587B0CB69096A01AA1446D4
:10393000E0C8E0C4E0C8E0C4184600F003F807B0EF
:10394000F0BDFFFFF0B599B00B91099032CA106835
:1039500008905768926800230C9320260D960CAEB1
:1039600003200A9030720F930293119309981390D9
:103970000B9814901597D0003B1816931797189230
:10398000E0000A460B90081800900720C0430690FC
:10399000002D00D1C6E0242608984643281D099032
:1039A0000CA80146143104910C3005901446002EE9
:1039B00000D1DCE02F4624370B98002800D1E6E048
:1039C0001498C36806CC1398083C98470834FF2124
:1039D000084200D0D8E00791A8680D90287B0CA978
:1039E000087228690C90EA690A9802400120032AAB
:1039F000089413D0022A14D0296A012A25D10390F1
:103A0000189A8A4200D8CBE0C900179B5A1854680C
:103A10000022664884421BD1595812E000231A46FE
:103A200018E00023159C16998C421A4612D0039078
:103A3000214608311591616800225C48814207D116
:103A4000216809680398034604E00346029A01E0EE
:103A5000134603981143059A136051606A690A99E5
:103A60000A40032A19D0022A1AD0A969012A29D1A9
:103A70000446189A8A4200D895E0C800179B019026
:103A80001A185068039000224848039981421CD1BB
:103A9000019819580968234618E000231A4615E0D2
:103AA0000023159C16998C421A460FD021460831E6
:103AB0001591616800223D4B994206D12168096841
:103AC000034603E00346029A00E0134611430498BC
:103AD000036041602868012809D1099D2968189A66
:103AE0009142089C56D2C8001799081808E015980A
:103AF00016998842089C099D4FD0014608311591BE
:103B0000011D00680A680CA9904706990B9A521883
:103B10000B9276181C3E24350995079908423D46BC
:103B200032D144E70A93E0000B9014460A9887428A
:103B30001DD03E4608360B98002828D0224608346F
:103B4000002F12D01498C36806CA13989847FF250F
:103B5000284219D105CF0CA9904706990B9A521803
:103B60000B9228423746E1D00EE008321446009806
:103B700084420CD0002C0AD01498C36806CC139849
:103B80009847FF21084202D0012019B0F0BD002063
:103B900019B0F0BD0848FFF7D9FD0648FFF7BEFD94
:103BA0000348FFF7D3FD0248FFF7D0FD1D390000A1
:103BB00020CC000054CA000014CC0000F0B595B031
:103BC0001192129300250F9580261B9F002907D084
:103BD000016801240891214201460AD109970DE0AC
:103BE00001210F912D211091791C09910468014642
:103BF00005E00F942B201090781C0990089C0894E5
:103C00000EA805700420069004420A91079701D17E
:103C1000099A33E00EA801210170D118002B2AD097
:103C20000025531C107840B234467F3464B2A04261
:103C30001DDC971C8B423C4600D11C46C2B28B4215
:103C400000D03B4630465F30C0B282420FD9601C84
:103C50008C4200D003468C4200D1204634466F345B
:103C6000E4B2A24203D9421C884200D013461A464D
:103C70006D1C8A42D5D1099AAA180A991A9C0FA8D4
:103C80000B900EA80C9011A80D90C868012822D1A5
:103C90000F6997421FD909920125E8020490280470
:103CA00002900022D04305900820089B0342039411
:103CB00022D10998381A097A0122032900D00A462C
:103CC00003210A400027002A37D0022A32D00022DE
:103CD0000892074632E025460BA80C4600F096FBFA
:103CE000FF21084200D013E1E069216ACB68294630
:103CF000079A984715B0F0BD0095019230204860B2
:103D00000BA80C4600F082FBFF21084200D0FFE028
:103D100008910998381A217A0329009B00D00B4694
:103D200003210B40002B019F7FD0022B7FD000236B
:103D300007467FE04708401C400808900A98406802
:103D4000802803D200263246334633E00499884265
:103D50000CD23F230340334380091F2101404036EA
:103D60000E43022100221846134623E0029988429E
:103D70000FD23F2105460D40354384090C403443A2
:103D8000000B0F210140603632460A430121002317
:103D90000EE03F2105460D40354332467032830C1C
:103DA000134384090C403443020B0A403243002180
:103DB0002846264613AC23706270A670E0701491FA
:103DC0000698401A09906618059C25466D1CBD4250
:103DD0000AD20A99C869096ACB683146099A984794
:103DE000FF210842F2D093E00BA80A9C214600F084
:103DF0000DFBFF25284200D08AE0E069216ACB68EC
:103E00000399079A9847284200D081E0059C641CDA
:103E1000089884427FD20A99C869096ACB683146FA
:103E2000099A98472842F2D072E0034602E0470818
:103E3000401C43080A9840688028019303D200265A
:103E40003246334633E0049988420CD23F23034084
:103E5000334380091F21014040360E4302210022D6
:103E60001846134623E0029988420FD23F210546A7
:103E70000D40354384090C403443000B0F210140B1
:103E8000603632460A43012100230EE03F210546F9
:103E90000D40354332467032830C134384090C4085
:103EA0003443020B0A40324300212846264613AC15
:103EB00023706270A670E07014910698401A099001
:103EC0006618059C25466D1CBD420AD20A99C86930
:103ED000096ACB683146099A984708990842F2D096
:103EE00016E00A99C869096ACB680399079A984746
:103EF000089D28420CD1019F641CBC420ED20A9935
:103F0000C869096ACB683146099A98472842F3D0B4
:103F1000012015B0F0BD002015B0F0BD002015B097
:103F2000F0BDF0B58BB00392049102465069D5689C
:103F30000021CB43029380230893012D069203D1E5
:103F4000012803D0039A6CE001284FD10498039C08
:103F5000001907909069002300285ED0002C5CD0E7
:103F60000095029A161A0023049802460746541C2C
:103F7000107845B208987F3040B2854227DC05931F
:103F8000901C079A9442024600D12246EBB2079D4C
:103F9000AC4200D0044608985F30C0B21D4685424E
:103FA00017D9501C019007988242059B00D0019CB4
:103FB0000798824200D1019208986F30C0B28542C2
:103FC00005D9019D681C079A954200D004462246F7
:103FD00001E02246059B761C002E0AD0D81B8318D0
:103FE000079882421746C2D1039B15E0D069116A37
:103FF0009CE0002B10D003988342009D0DD006D288
:104000000498C056089A3F3252B2904205DC002212
:1040100004980399FFF70CFC009D012D00D08BE064
:104020001A46049883180698006907900392002A9C
:10403000089A2ED00021049C651C207846B21046B8
:104040007F3040B286421DDCA71C9D42384600D11D
:104050002846F4B29D4200D03D465F32D2B294422F
:1040600012D9461C984200D035469842089A00D191
:10407000064610466F30C0B2844203D9701C9E427F
:1040800000D005462C4601E02C46089A491C9C426B
:10409000D2D10798814246D20026039800283146A3
:1040A0002FD00021049C651C207847B210467F3039
:1040B00040B287421EDCA01C9D42024600D12A4627
:1040C000FCB29D4200D0054608985F30C0B28442E1
:1040D00012D9571C9A4200D03D469A4200D1174649
:1040E000089A10466F30C0B2844203D9781C9F42B0
:1040F00000D005462C4601E02C46089A491C9C42FB
:10410000D1D10798401A069B1A7A032A314600D06B
:1041100011460322114000291AD0022915D000218E
:104120000791064615E00699C869096ACB680499A3
:10413000039A98470BB0F0BD0699C869096ACC6824
:1041400004991A46A0470BB0F0BD4608401C400831
:1041500007905968802903D200252B462C4633E06E
:10416000C80A00280DD13F200840089D284389092E
:104170001F220A40403515430222002301461C46F7
:1041800022E0080C3F2200280ED108461040089B70
:1041900018438D0915401D43090B0F220A40603357
:1041A0001343012200240EE008461040089F3843C4
:1041B0003B4670338C0C1C438D0915403D430B0B63
:1041C00013403B430022014609A8047043708570E8
:1041D000C1700A9204218F1A8518029C641CB44293
:1041E0000AD20699C869096ACB6829463A469847AF
:1041F000FF210842F2D009E00699C869096ACB6834
:104200000499039A9847FF24204202D001200BB062
:10421000F0BD079E0298401C0290B0420BD2069956
:10422000C869096ACB6829463A4698472042F1D0C6
:1042300001200BB0F0BD00200BB0F0BD80B50B46E7
:10424000014610461A46FFF76CFE80BDF0B58BB0F4
:10425000039104680120C74314262E48844227D3C3
:1042600014262C49204600F0C1F9049605906422DA
:104270000846114600F0BAF906AA92194000264EE7
:10428000335C3D466F00D355D2192F46059D30183B
:1042900040785070480031184978D170305C907087
:1042A0000498C019861E1D4884422C46D9D800E0C7
:1042B0002546642D0EDB6421284600F097F905465B
:1042C000F619480014490A5C06AB9A559A19081861
:1042D00040785070F019092D04DC401C303506A9D7
:1042E0000D5408E069000C4A535C06AC23542318B3
:1042F0005118497859701421091A6A46516006A963
:10430000081810600121064A00230398FFF756FCA5
:104310000BB0F0BD102700004CCE0000FFE0F5050B
:1043200098CA0000F0B58BB0039104680120C74320
:1043300014262E48844227D314262C49204600F008
:1043400055F90496059064220846114600F04EF98E
:1043500006AA92194000264E335C3D466F00D355A5
:10436000D2192F46059D30184078507048003118FA
:104370004978D170305C90700498C019861E1D4831
:1043800084422C46D9D800E02546642D0EDB6421FA
:10439000284600F02BF90546F619480014490A5C36
:1043A00006AB9A559A19081840785070F019092DE3
:1043B00004DC401C303506A90D5408E069000C4AA5
:1043C000535C06AC235423185118497859701421B2
:1043D000091A6A46516006A9081810600121064AA8
:1043E00000230398FFF7EAFB0BB0F0BD1027000095
:1043F0004CCE0000FFE0F50598CA000080B50368C8
:10440000426808461946FFF78CFD80BDF0B585B0BF
:104410000D46044620680168012954D1E9690291DA
:10442000296A01914268802A04D2032600210F469E
:104430000B4636E0D00A802100280CD13F201040E6
:10444000084392091F2313404031194302260027D5
:1044500002463B4625E0100C002810D13F231046B1
:10446000184008430090900918400843120B0F238E
:10447000134060310F461F43012600230FE03F2603
:1044800010463040084300900F467037930C3B4372
:10449000900930400843170B37400F430026009A1D
:1044A000014603A8037047708170C2700496811999
:1044B0000420821B0198C368029898470146012096
:1044C000FF2211420AD1606801780020002905D03E
:1044D000E869296ACB68A26806CA984705B0F0BDAA
:1044E000002243088B4274D303098B425FD3030A33
:1044F0008B4244D3030B8B4228D3030C8B420DD346
:10450000FF22090212BA030C8B4202D312120902D3
:1045100065D0030B8B4219D300E0090AC30B8B4211
:1045200001D3CB03C01A5241830B8B4201D38B03BF
:10453000C01A5241430B8B4201D34B03C01A524164
:10454000030B8B4201D30B03C01A5241C30A8B42A7
:1045500001D3CB02C01A5241830A8B4201D38B0292
:10456000C01A5241430A8B4201D34B02C01A524136
:10457000030A8B4201D30B02C01A5241CDD2C309A8
:104580008B4201D3CB01C01A524183098B4201D324
:104590008B01C01A524143098B4201D34B01C01A0F
:1045A000524103098B4201D30B01C01A5241C30887
:1045B0008B4201D3CB00C01A524183088B4201D3F6
:1045C0008B00C01A524143088B4201D34B00C01AE2
:1045D0005241411A00D20146524110467047FFE74E
:1045E00001B5002000F006F802BDC0460029F7D052
:1045F00076E770477047C0468446101C62468C467A
:10460000191C634600E0C0461FB501F01FF80028E2
:1046100001D40021C8421FBD10B500F079FF40420F
:10462000013010BD10B501F011F8002801DB0020A9
:1046300010BD012010BDC04610B501F007F80028DC
:1046400001DD002010BD012010BDC04610B500F0F6
:1046500099FF002801DC002010BD012010BDC046DC
:1046600010B500F08FFF002801DA002010BD0120F6
:1046700010BDC0468446081C6146FFE71FB500F028
:1046800093FB002801D40021C8421FBD10B500F0E3
:1046900025FB4042013010BD10B500F085FB00281D
:1046A00001DB002010BD012010BDC04610B500F098
:1046B0007BFB002801DD002010BD012010BDC0469D
:1046C00010B500F031FB002801DC002010BD0120F6
:1046D00010BDC04610B500F027FB002801DA00200D
:1046E00010BD012010BDC04670B501F0DFFD0022F5
:1046F0000B4B0D00040001F00BF801F047FE060023
:1047000001F09CFD0022074B01F002F802000B00B3
:104710002000290001F07CFA01F038FE310070BD64
:104720000000F03D0000F041F0B5C6464E024702E1
:10473000760A7B0A4400C50FF7004800984600B58A
:10474000240E2A00DB00000EC90FBC468D4267D044
:10475000221A002A00DCA5E000283AD1002F00D15F
:1047600093E0511E002900D0BCE00124DB1B5A015C
:1047700046D59B019E09300001F0EAFD05388640D0
:10478000844200DD9DE0041B320020200134E24021
:10479000041BA64033005E1EB341002413435A0796
:1047A00004D00F221A40042A00D004335A0129D51C
:1047B0000134FF2C00D181E02A009B015B0AE4B2A6
:1047C0005B02E405580AD2072043104304BC90461C
:1047D000F0BDFF2CE3D080213800C9040843844693
:1047E0001B2A00DD82E020206146D140821A60460B
:1047F00090400200501E82410A439B1A5A01B8D4CD
:104800005A07CED1DE082A00FF2C3AD1002E00D163
:10481000AEE08023DB0333435B025B0AFF24CFE778
:10482000211A002952DD002831D0FF2CB7D080207A
:104830003E00C0040643B4461B2900DDAAE0202642
:104840006046C840711A66468E4031004E1EB14126
:1048500001435B185901D3D50134FF2C00D187E007
:10486000012278491A405B080B40134397E7002C5C
:1048700000D0A7E0002B00D0B6E03B1E62D100269E
:10488000002273025B0AE4B29AE7140087E7002F64
:104890004DD0481E002857D1634401245A01AFD59A
:1048A0000224DDE7002A24D1621CD2B2012ADEDD17
:1048B000DE1B720135D5FE1A0D005CE72A000023CD
:1048C0007EE73300604A241A134068E7002963D169
:1048D000611CC8B201284EDDFF2949D063445B0842
:1048E0000C005CE7FF2A41D00A0079E701229B1AFD
:1048F00084E7002C1DD0FF2822D08024E4045242FB
:1049000023431B2A00DD8AE01C002025D440AA1A7C
:1049100093405A1E9341234362460400D31A0D006C
:1049200025E7002E00D026E700220024A9E70C008E
:1049300035E7002B4DD0D243002AEDD0FF28E0D13F
:104940006346FF240D002AE7FF290FD0010073E71B
:10495000002B61D0FF24002F00D120E780224146A8
:10496000D203114202D0164200D13B00FF2416E7C9
:10497000FF24002324E7002CEAD1002B58D0002F7D
:1049800000D10CE763445A0100D439E72E4A0C00E9
:10499000134004E701215CE7002C1ED1002B40D01E
:1049A000C94300290BD0FF2836D01B2947DC1C0047
:1049B0002026CC40711A8B40591E8B4123436344FF
:1049C000040047E7002B18D13B1E2DD00D00FF241B
:1049D000E5E63B0004000D00E1E6FF281CD0802442
:1049E000E40449422343E0E7002F00D1D7E6DE1B71
:1049F00072011FD5FB1A0D00D1E6FF24002F00D154
:104A0000CDE680224046D2031042AFD01642ADD14F
:104A10003B000D00FF24C2E66346FF24BFE60123EE
:104A20007AE73B000400BAE680260022F603F0E6AF
:104A30003B00B4E6331E00D0E2E6002221E701236A
:104A4000BDE7C046FFFFFF7DFFFFFFFBF0B5574608
:104A50004E46DE464546E0B544024300C60F83B0ED
:104A60000F1C640A1B0EB24653D0FF2B27D08022A6
:104A7000E400D20414437F2252429046984400231B
:104A800099469B467D027800FB0F6D0A000E00934D
:104A900024D0FF2846D080230021ED00DB041D43F5
:104AA0007F384746381A4F460F43BF00B946330098
:104AB000009A874F53404A46BA5801939746002CB4
:104AC0004ED108239946F7339846FD3B9B467D021D
:104AD0007800FB0F6D0A000E0093DAD1002D26D16D
:104AE000002001213300009A7A4F53404246101AA9
:104AF0004A460A439200BA581D009746009B2C0074
:104B00009A468B465B46022B31D15346FF21002447
:104B100038E0002C17D1042399460023984601332E
:104B20009B46AFE7FF20002D0BD10221DAE72800DA
:104B300001F00EFC431F9D4076235B42181A0021B2
:104B4000AFE70321ADE7200001F002FC431F9C40CA
:104B500076235B421B1A9846002399469B4691E7B1
:104B60000C239946F3339846FC3B9B468AE7032B7C
:104B700000D1A5E05546012B00D081E001230021A2
:104B800000242B406402C905600ADB070843184370
:104B900003B03CBC90469946A246AB46F0BD80248B
:104BA0000023E403FF21EDE7FF210024EAE70123CE
:104BB000591A1B2966DD019A134000210024E1E700
:104BC0008023DB031C4238D01D4251D01C436402B9
:104BD000640A3300FF21D5E763016C01A3423BD295
:104BE0001B260021013801251F0049005B00002F12
:104BF00001DB9C4201D81B1B2943013E002EF3D14F
:104C00001C00631E9C410C4301007F310029CEDD56
:104C1000630704D00F232340042B00D00434230166
:104C200003D501002C4B80311C40FE290DDD0123F2
:104C3000019AFF2113400024A4E78023DB031C43D7
:104C40006402640A3300FF219CE70123019AA40156
:104C5000640AC9B2134095E71B1B1A260121C2E75B
:104C6000009B8B469A4600244CE76302E5D500255D
:104C70008024E4032C436402640A009BFF2181E743
:104C80000195C1E723002020CB40411A8C40611ED2
:104C90008C411C43630704D00F232340042B00D016
:104CA0000434630105D50123019A01211340002436
:104CB00068E70123019AA401640A1340002161E717
:104CC0008023DB031C436402640A5346FF2159E737
:104CD00014CF000054CF0000FFFFFFF770B5420073
:104CE00045024E024C00C30F6D0A120E760A240EC6
:104CF000C90F0120FF2A06D0FF2C03D0A24201D108
:104D0000B54206D070BD002DFCD1FF2CFAD1002E8B
:104D1000F8D18B4206D00120002AF3D12800451E8D
:104D2000A841EFE70020EDE7F0B5420045024C0254
:104D3000C30F48006D0A120E640A000EC90FFF2A45
:104D40001ED0FF2821D0002A0AD16E426E41F6B251
:104D500000280FD1002C0DD10020002D09D005E036
:104D6000002801D1002C01D08B4211D001215842E2
:104D70000843F0BD002EF7D0012001390843F8E7C1
:104D8000002DDED002204042F3E7002CDBD0F9E713
:104D90008242EBDC04DBA542E8D80020A542E8D241
:104DA0000121581E0843E4E7F0B542004D024C00D3
:104DB0004602760A120EC30F6D0A240EC90FFF2A8F
:104DC00016D0FF2C18D0002A0AD170427041C0B210
:104DD000002C15D0002805D0012001390843F0BD72
:104DE000002C13D0994214D001205B421843F6E7FF
:104DF0000220002EF3D1E4E70220002DEFD1E2E7FC
:104E0000002DE7D10020002EE9D0EDE7002DE9D1FB
:104E1000EAE7A24206DCDFDBAE4203D80020AE4266
:104E2000DAD3DCE7012049420843D8E7F8B5574612
:104E30004E464546DE46E0B54702460088467F0AB4
:104E4000360EC40F002E47D0FF2E24D0FB00802743
:104E5000FF041F43002399469A467F3E43465D0266
:104E60005800DB0F6D0A000E984643D0FF283BD058
:104E7000EB0080250022ED041D437F383618731C9B
:104E800041469B464B46614013430F2B64D87548FF
:104E90009B00C3589F46002F42D108239946063BEA
:104EA000FF269A46DAE74146022A28D0032A00D193
:104EB000CEE0012A00D0ACE0114000200022CCB2AC
:104EC0004002D205400AE407104320433CBC904610
:104ED0009946A246AB46F8BD002F15D1042399464A
:104EE000033B00269A46B9E7FF200222002DC5D0D9
:104EF0000322C3E7002D19D100200122BEE70124BF
:104F0000FF220C400020DBE7380001F021FA762672
:104F1000431F9F4000237642361A99469A469DE7E2
:104F20000C239946093BFF269A4697E7280001F093
:104F30000FFA431F9D4076235B42181A00229DE71B
:104F400080200024C003FF22BAE73D005246ABE7B1
:104F50003D0021005246A7E73B0C9C462A04120C58
:104F60002B0C1400604665463F043F0C7C434243D3
:104F70005D437B43270C9B18FF18BA4203D980235B
:104F80005B029C46654424043A04240C12199301E4
:104F90005C1EA3413F0C920E7D191A43AD011543CF
:104FA0002B0104D501235E466A081D4015433200DB
:104FB0007F32002A25DD6B0704D00F232B40042B02
:104FC00000D004352B0103D53200274B80321D4021
:104FD000FE2A94DC0124A801400AD2B20C406FE7FB
:104FE0008020C003074207D0054205D12843400274
:104FF000400A4446FF2263E738434002400AFF224A
:105000005EE70124A31A1B2B05DD0C4000220020C3
:1050100056E75E46CBE72A002020DA40C31A9D40BF
:105020002B005D1EAB4113435A0704D00F221A40D8
:10503000042A00D004335A0104D5012401220C4073
:1050400000203DE701249B01580A0C40002237E76D
:1050500080200124C00328434002400A0C40FF2264
:105060002EE7C04694CF0000FFFFFFF7F0B54F4694
:10507000D64646464400C0B5C20F47024802400A21
:10508000844666467B0A4800C90F9A46240E1500DE
:10509000DB00000E8946F600FF2800D18FE00121D9
:1050A0004F464F403900914266D0221A002A00DC58
:1050B0009DE000283DD1002E00D18BE0511E00293B
:1050C00000D0B5E001249B1B5A0144D59B019F09E8
:1050D000380001F03DF905388740844200DD96E054
:1050E000041B3A0020200134E240041BA7403B008F
:1050F0005F1EBB41002413435A0704D00F221A40FD
:10510000042A00D004335A0127D50134FF2C00D1E2
:1051100079E001229B015B0AE4B22A405B02E405CC
:10512000580AD207204310431CBC90469946A24619
:10513000F0BDFF2CE0D08021C9040E431B2A7BDC8C
:1051400031002020D140821A9640721E96410E43B3
:105150009B1B5A01BAD45A07D0D10122DF082A403A
:10516000FF2C33D1002F00D1A8E08023DB033B4389
:105170005B025B0AFF24D1E7211A00294CDD0028DD
:105180002AD0FF2CB8D08020C00406431B2900DDA4
:10519000AFE030002027C840791A8E40711E8E4142
:1051A00006439B195901D6D50134FF2C00D185E067
:1051B00001227A491A405B080B4013439CE7002EFA
:1051C00000D070E76BE73B1EC5D100227B025B0A73
:1051D000E4B2A3E714008FE7002E4DD0481E00284C
:1051E00057D19B1901245A01B5D50224E0E7002AC2
:1051F00025D1621CD2B2012A72DD9F1B7A0135D5FE
:10520000F71A0D0064E7012200232A4086E73B00DD
:10521000634A241A13406FE700296CD1611CC8B29D
:1052200001284EDDFF2949D09B195B080C0063E77C
:10523000FF2A41D00A0081E701269B1B89E7002C49
:105240001CD0FF2821D08024E404524223431B2A8F
:1052500000DD96E01C002025D440AA1A93405A1E77
:1052600093412343F31A04000D002DE7002F00D0D3
:105270002EE700220024A9E70C003DE7002B58D0C0
:10528000D243002AEED0FF28E1D13300FF240D00E5
:1052900032E7FF2910D0010078E7002B6ED0FF2401
:1052A000002E00D128E780225146D203114203D0BC
:1052B0006146114200D13300FF241DE7FF24002383
:1052C0002CE7002CE9D1002B63D0002E00D113E78E
:1052D0009B195A0100D43EE7314A0C0013400BE7FA
:1052E000002C1ED1002B2FD1002E4FD033000D00EB
:1052F00002E7012655E7002C1FD1002B43D0C943FC
:1053000000290BD0FF2839D01B2944DC1C002027A2
:10531000CC40791A8B40591E8B4123439B190400C2
:1053200040E7002B1AD1002E24D180270022FF0352
:105330001BE7330004000D00DEE6FF281ED08024AA
:10534000E40449422343DFE7002E00D1D4E69F1B4B
:105350007A0100D437E7F31A0D00CDE6FF24002EC2
:1053600000D1C9E680225046D2031042A4D0604644
:105370001042A1D133000D00FF24BDE63300FF240D
:10538000BAE601236EE733000400B5E600270022E9
:105390001CE73300B0E60123C0E7C046FFFFFF7DF6
:1053A000FFFFFFFB41024300C20F490A1B0E002012
:1053B0007E2B0DDD9D2B0CDC802000040143952B02
:1053C0000ADC9620C31AD9404842002A00D10800BE
:1053D0007047034BD018FBE7963B9940F4E7C04673
:1053E000FFFFFF7F70B5002830D0C317C4185C40A2
:1053F000C50F200000F0ACFF9E231B1A962B0DDC7E
:105400009622D21A94402A006402640ADBB2640233
:10541000DB05600AD2071843104370BD992B19DCD5
:105420009922D21A002A29DD94402200144C1440FB
:10543000510704D00F210A40042A00D0043462012D
:1054400013D4A401640ADBB22A00E0E7002200239F
:105450000024DCE705222100121AD140B922D21A19
:105460009440621E94410C43DAE7054B2A001C402D
:105470009F23A4011B1A640ADBB2C8E72200D5E708
:10548000FFFFFFFB10B5041E27D000F061FF9E2335
:105490001B1A962B0ADC9622D21A94406402640AE4
:1054A000DBB26402DB05600A184310BD992B17DCE0
:1054B0009922D21A002A27DD94402200134C14406E
:1054C000510704D00F210A40042A00D0043462019D
:1054D00012D4A401640ADBB2E3E700230024E0E76E
:1054E000B9222100D21A91400A00511E8A41052199
:1054F000091ACC401443DBE7044B1C409F23A40152
:105500001B1A640ADBB2CCE72200D7E7FFFFFFFBE0
:10551000F0B54F464646D6465C00C0B51F03DB0FCC
:105520009A46174B0E034D0084468046360B6D0D90
:10553000C90F91463F0B640D01209D4208D09C424B
:1055400001D0A5420BD01CBC90469946A246F0BDA6
:1055500063463343F7D1AC42F5D13A43F3D101204E
:10556000BE42F0D1C845EED1514507D0002DEAD159
:1055700063461E433000461EB041E4E70020E2E7E8
:10558000FF070000F0B54546DE4657464E46E0B5FB
:105590001F033D0B2C4F0E034C00AB465D008446B1
:1055A000360B640DC90F90466D0DDB0FBC422AD03F
:1055B000254FBD422DD0002C0FD13043070081462E
:1055C00078427841C0B2002D17D15F463A4314D1DA
:1055D0004B460020002B0AD006E0002D02D1584691
:1055E000024301D0994218D04842012108433CBCF3
:1055F00090469946A246AB46F0BD0028F2D0012065
:10560000013B1843F3E737000743D1D00220404263
:10561000EDE75F461743CED0F8E7AC42E4DC03DAAF
:10562000481E01210843E2E75E45DDD806D0002090
:105630005E45DCD20123481E1843D8E7C445D3D8C1
:105640000020C445F6D3D2E7FF070000F0B54E4670
:105650004546DE4657465C00E0B51F03DB0F994622
:105660002A4B0E034D00C90F8446360B6D0D8B4639
:1056700090463F0B640D9D4220D0244B9C4222D08B
:10568000002D12D1304343424341DBB2002C1FD0E6
:10569000002B0CD04B460120013B034318003CBCBF
:1056A00090469946A246AB46F0BD002C16D0CB459D
:1056B00017D05B46594201230B43EFE73100022329
:1056C0000143EBD1D9E7390002231143E6D1D7E7F3
:1056D0003A43DDD100230028E0D0EAE73A43E6D19F
:1056E000E7E7A542E5DC05DBBE42E2D807D00023B0
:1056F000BE42D3D25946012301390B43CEE7C445FC
:10570000D7D80023C445F5D3C8E7C046FF0700003B
:10571000F0B557464546DE464E46E0B50C03984682
:105720004E00230B87B0070092469B46760DCD0FA7
:10573000002E6BD06D4B9E4235D080245B46420FCD
:105740002404DB0014431C43C3009946684BA34662
:105750009C46002300276644029343461C035A00DC
:10576000DB0F5046240B520D984600D176E05F4B7C
:105770009A426DD08023410F1B040B435C49E40027
:105780008C461C43C300002062444146B618694061
:10579000721C0191944607430F2F00D9B0E0554A7F
:1057A000BF00D25997465B460343994600D087E035
:1057B00000239B46023308270293CEE7424601921C
:1057C000022867D0032800D10EE2012800D062E150
:1057D000002300240022994601990140CDB2002106
:1057E00012030B0D120B1B051343434A24051340F0
:1057F0001C436400ED0764082C434846210007B0B1
:105800003CBC90469946A246AB46F0BD0343994640
:105810004FD05B46002B00D189E1584600F098FD3F
:1058200003000B3B1C2B00DD7AE11D22D31A3A004A
:1058300001005C46DA4008398C4013008F40234356
:105840009B46B94600232D4E0027361A029384E763
:10585000534623432AD10024022096E7534623438C
:1058600020D0002C00D157E1200000F071FD030092
:105870000B3B1C2B00DD49E11D21CB1A51460200D8
:10588000D9405346083A944093400C431B4A121A9D
:1058900000207AE70125019B144C1D4000230022C3
:1058A00099469CE70024002201206EE7534603201E
:1058B0006BE700239B4601330427002602934CE745
:1058C000032381460C27029347E78022002300250B
:1058D00012039946054C82E75C464B4602986FE7F7
:1058E0005C464B46019502986AE7C046FF070000F8
:1058F00001FCFFFFD4CF0000FFFF0F800DFCFFFF76
:105900004A464946170C1A0C1B041B0C08041900C4
:10591000000C41431500884619007D4379430395E7
:1059200089462900150045434D44029545462D0CF6
:10593000AA46029D5544A94506D98A4680214902B6
:105940008946CA4451460391290C049141460904F1
:105950002D04090C88462900250C24044144240CFC
:105960000591210041438846210079438A466843D6
:10597000414650448146080C48446F43824503D950
:105980008021490289464F44010C89463900494427
:10599000029141460F0404993F0C88460004C01947
:1059A00080444146049159460F0C0904090C88466D
:1059B00059438A4639005143894641464A43514634
:1059C000090C8B467B43D2185A44934203D9802357
:1059D0005B029B46D94451460904090C8A4641465C
:1059E00061437C43130C12044B445244A1468A4643
:1059F0003C0041466C434D4351464D440F0C7D19CC
:105A0000A94503D98021490288464444049F03994B
:105A1000B84641448B4683458041414288465146C1
:105A200008042F04000C3F185846029910188946A4
:105A3000904292414F44BA46524299469346C244DC
:105A4000D144CB448F42BF41C245894199459B41D6
:105A5000934592417F4249422D0C52420F435B4293
:105A600013437F19FF185B463C19DB0D059A64024E
:105A70001C43430213435D1EAB415A46C00D034312
:105A800052021343E20156D501205A080340134342
:105A9000E207134364085A48604400284DDD5A0762
:105AA00009D00F221A40042A05D01A1D9A429B41A0
:105AB0005B42E4181300E20104D58020514AC00083
:105AC00014406044504A904200DDE3E60125DB08C3
:105AD00062071A436402019B9146220B4405640D40
