:020000040000FA
:10000000001000208D000000E5010000E501000067
:1000100000000000000000000000000000000000E0
:10002000000000000000000000000000E5010000EA
:100030000000000000000000E5010000E5010000F4
:1000400000000000E5010000E5010000E5010000FE
:10005000E5010000E5010000E5010000E501000008
:10006000E5010000E5010000E5010000E5010000F8
:10007000E5010000E5010000E5010000E5010000E8
:10008000E5010000E5010000E5010000F0B583B0E6
:1000900023482449016024482449814204D2244A47
:1000A00008CA08C18142FBD32248234901E000224B
:1000B00004C18142FBD321480168214A1140092330
:1000C0001943016041681140194341606946182095
:1000D0000870192048701A2088701B20C8701948B1
:1000E000019000200881184800F036F8FF20C04336
:1000F0001649174A174B0C4625780646FE361F68E8
:1001000037401F60166806402E4316601D680126A2
:100110003542FBD0641C0D460B35AC42ECD1FEE7FA
:100120000400002008000020000000200000002043
:1001300010020000000000200000002060070050B6
:10014000F0FFFCFF00E0D701FA010000FA01000017
:100150001C2500401C210040B0B50A6849681E48B3
:10016000436A41620021C943CB1EC46E1C40C46671
:10017000036804241C430460184B1C6801252C43AD
:100180001C609C682C439C604B1E154C25681D40D0
:1001900025600B46FF3BC4691C40C4618368130E95
:1001A000202B00D30B4683600369130CDBB2202B9A
:1001B00000D30B4603614369FF231B0213401B0A54
:1001C000202B00D30B464361C368D2B2202A00D350
:1001D0000A46C260B0BDC046002500400020004075
:1001E00008210040FFE7EFF30980EFF308818269FF
:1001F0008B6900BE7047FEDEFEE748656C6C6F20C1
:05020000776F726C64D1
:08020800F8B5C046F8B5C04688
:040000050000008D6A
:00000001FF
